{
  "_format": "hh-sol-artifact-1",
  "contractName": "Marketplace",
  "sourceName": "contracts/Marketplace.sol",
  "abi": [
    {
      "inputs": [
        {
          "internalType": "contract IERC20",
          "name": "_paymentToken",
          "type": "address"
        }
      ],
      "stateMutability": "nonpayable",
      "type": "constructor"
    },
    {
      "inputs": [
        {
          "internalType": "address",
          "name": "user",
          "type": "address"
        },
        {
          "internalType": "uint256",
          "name": "amount",
          "type": "uint256"
        }
      ],
      "name": "InsufficientBalance",
      "type": "error"
    },
    {
      "inputs": [],
      "name": "OfferNotFound",
      "type": "error"
    },
    {
      "inputs": [],
      "name": "OrderAlreadyTerminated",
      "type": "error"
    },
    {
      "inputs": [],
      "name": "OrderNotFulfilled",
      "type": "error"
    },
    {
      "inputs": [
        {
          "internalType": "string",
          "name": "message",
          "type": "string"
        }
      ],
      "name": "Unauthorized",
      "type": "error"
    },
    {
      "anonymous": false,
      "inputs": [
        {
          "indexed": true,
          "internalType": "uint256",
          "name": "orderId",
          "type": "uint256"
        },
        {
          "indexed": false,
          "internalType": "uint256",
          "name": "amount",
          "type": "uint256"
        }
      ],
      "name": "Deposit",
      "type": "event"
    },
    {
      "anonymous": false,
      "inputs": [
        {
          "indexed": true,
          "internalType": "address",
          "name": "vendor",
          "type": "address"
        },
        {
          "indexed": true,
          "internalType": "uint256",
          "name": "offerId",
          "type": "uint256"
        },
        {
          "indexed": false,
          "internalType": "uint256",
          "name": "pricePerHour",
          "type": "uint256"
        },
        {
          "indexed": false,
          "internalType": "uint256",
          "name": "deploymentFee",
          "type": "uint256"
        },
        {
          "indexed": false,
          "internalType": "uint256",
          "name": "fulfillmentTime",
          "type": "uint256"
        },
        {
          "indexed": false,
          "internalType": "uint256",
          "name": "units",
          "type": "uint256"
        }
      ],
      "name": "NewOffer",
      "type": "event"
    },
    {
      "anonymous": false,
      "inputs": [
        {
          "indexed": true,
          "internalType": "address",
          "name": "vendor",
          "type": "address"
        },
        {
          "indexed": true,
          "internalType": "address",
          "name": "client",
          "type": "address"
        },
        {
          "indexed": true,
          "internalType": "uint256",
          "name": "offerId",
          "type": "uint256"
        }
      ],
      "name": "NewOrder",
      "type": "event"
    },
    {
      "anonymous": false,
      "inputs": [
        {
          "indexed": true,
          "internalType": "address",
          "name": "vendor",
          "type": "address"
        },
        {
          "indexed": true,
          "internalType": "address",
          "name": "client",
          "type": "address"
        },
        {
          "indexed": true,
          "internalType": "uint256",
          "name": "orderId",
          "type": "uint256"
        }
      ],
      "name": "OrderFulfilled",
      "type": "event"
    },
    {
      "anonymous": false,
      "inputs": [
        {
          "indexed": true,
          "internalType": "address",
          "name": "vendor",
          "type": "address"
        },
        {
          "indexed": true,
          "internalType": "address",
          "name": "client",
          "type": "address"
        },
        {
          "indexed": true,
          "internalType": "uint256",
          "name": "orderId",
          "type": "uint256"
        }
      ],
      "name": "OrderTerminated",
      "type": "event"
    },
    {
      "anonymous": false,
      "inputs": [
        {
          "indexed": true,
          "internalType": "address",
          "name": "user",
          "type": "address"
        },
        {
          "indexed": true,
          "internalType": "uint256",
          "name": "orderId",
          "type": "uint256"
        },
        {
          "indexed": false,
          "internalType": "uint256",
          "name": "amount",
          "type": "uint256"
        }
      ],
      "name": "Withdrawal",
      "type": "event"
    },
    {
      "inputs": [
        {
          "internalType": "address",
          "name": "_address",
          "type": "address"
        },
        {
          "internalType": "uint256",
          "name": "_orderId",
          "type": "uint256"
        }
      ],
      "name": "balanceOf",
      "outputs": [
        {
          "internalType": "uint256",
          "name": "",
          "type": "uint256"
        }
      ],
      "stateMutability": "view",
      "type": "function"
    },
    {
      "inputs": [
        {
          "internalType": "uint256",
          "name": "_pricePerHour",
          "type": "uint256"
        },
        {
          "internalType": "uint256",
          "name": "_deploymentFee",
          "type": "uint256"
        },
        {
          "internalType": "uint256",
          "name": "_fulfillmentTime",
          "type": "uint256"
        },
        {
          "internalType": "uint256",
          "name": "_units",
          "type": "uint256"
        }
      ],
      "name": "createOffer",
      "outputs": [
        {
          "internalType": "uint256",
          "name": "",
          "type": "uint256"
        }
      ],
      "stateMutability": "nonpayable",
      "type": "function"
    },
    {
      "inputs": [
        {
          "internalType": "uint256",
          "name": "_offerId",
          "type": "uint256"
        },
        {
          "internalType": "uint256",
          "name": "_initialDeposit",
          "type": "uint256"
        }
      ],
      "name": "createOrder",
      "outputs": [
        {
          "internalType": "uint256",
          "name": "",
          "type": "uint256"
        }
      ],
      "stateMutability": "nonpayable",
      "type": "function"
    },
    {
      "inputs": [
        {
          "internalType": "uint256",
          "name": "_orderId",
          "type": "uint256"
        },
        {
          "internalType": "uint256",
          "name": "_amount",
          "type": "uint256"
        }
      ],
      "name": "deposit",
      "outputs": [],
      "stateMutability": "nonpayable",
      "type": "function"
    },
    {
      "inputs": [
        {
          "internalType": "uint256",
          "name": "_orderId",
          "type": "uint256"
        },
        {
          "internalType": "string",
          "name": "_metadata",
          "type": "string"
        }
      ],
      "name": "fulfillOrder",
      "outputs": [],
      "stateMutability": "nonpayable",
      "type": "function"
    },
    {
      "inputs": [],
      "name": "offerCount",
      "outputs": [
        {
          "internalType": "uint256",
          "name": "",
          "type": "uint256"
        }
      ],
      "stateMutability": "view",
      "type": "function"
    },
    {
      "inputs": [
        {
          "internalType": "uint256",
          "name": "",
          "type": "uint256"
        }
      ],
      "name": "offers",
      "outputs": [
        {
          "internalType": "address",
          "name": "vendor",
          "type": "address"
        },
        {
          "internalType": "uint256",
          "name": "pricePerHour",
          "type": "uint256"
        },
        {
          "internalType": "uint256",
          "name": "deploymentFee",
          "type": "uint256"
        },
        {
          "internalType": "uint256",
          "name": "remainingUnits",
          "type": "uint256"
        },
        {
          "internalType": "uint256",
          "name": "fulfillmentTime",
          "type": "uint256"
        }
      ],
      "stateMutability": "view",
      "type": "function"
    },
    {
      "inputs": [],
      "name": "orderCount",
      "outputs": [
        {
          "internalType": "uint256",
          "name": "",
          "type": "uint256"
        }
      ],
      "stateMutability": "view",
      "type": "function"
    },
    {
      "inputs": [
        {
          "internalType": "uint256",
          "name": "",
          "type": "uint256"
        }
      ],
      "name": "orders",
      "outputs": [
        {
          "internalType": "address",
          "name": "client",
          "type": "address"
        },
        {
          "internalType": "uint256",
          "name": "offerId",
          "type": "uint256"
        },
        {
          "internalType": "uint256",
          "name": "balance",
          "type": "uint256"
        },
        {
          "internalType": "uint256",
          "name": "createdAt",
          "type": "uint256"
        },
        {
          "internalType": "uint256",
          "name": "fulfilledAt",
          "type": "uint256"
        },
        {
          "internalType": "uint256",
          "name": "terminatedAt",
          "type": "uint256"
        },
        {
          "internalType": "uint256",
          "name": "lastWithdrawal",
          "type": "uint256"
        },
        {
          "internalType": "string",
          "name": "metadata",
          "type": "string"
        }
      ],
      "stateMutability": "view",
      "type": "function"
    },
    {
      "inputs": [],
      "name": "paymentToken",
      "outputs": [
        {
          "internalType": "contract IERC20",
          "name": "",
          "type": "address"
        }
      ],
      "stateMutability": "view",
      "type": "function"
    },
    {
      "inputs": [
        {
          "internalType": "uint256",
          "name": "_offerId",
          "type": "uint256"
        },
        {
          "internalType": "uint256",
          "name": "_remainingUnits",
          "type": "uint256"
        }
      ],
      "name": "setOfferRemainingUnits",
      "outputs": [],
      "stateMutability": "nonpayable",
      "type": "function"
    },
    {
      "inputs": [
        {
          "internalType": "uint256",
          "name": "_orderId",
          "type": "uint256"
        }
      ],
      "name": "terminateOrder",
      "outputs": [],
      "stateMutability": "nonpayable",
      "type": "function"
    },
    {
      "inputs": [
        {
          "internalType": "uint256",
          "name": "_orderId",
          "type": "uint256"
        },
        {
          "internalType": "uint256",
          "name": "_amount",
          "type": "uint256"
        }
      ],
      "name": "withdraw",
      "outputs": [],
      "stateMutability": "nonpayable",
      "type": "function"
    }
  ],
  "bytecode": "0x608060405234801561001057600080fd5b50604051612a06380380612a06833981810160405281019061003291906100ed565b806000806101000a81548173ffffffffffffffffffffffffffffffffffffffff021916908373ffffffffffffffffffffffffffffffffffffffff1602179055505061011a565b600080fd5b600073ffffffffffffffffffffffffffffffffffffffff82169050919050565b60006100a88261007d565b9050919050565b60006100ba8261009d565b9050919050565b6100ca816100af565b81146100d557600080fd5b50565b6000815190506100e7816100c1565b92915050565b60006020828403121561010357610102610078565b5b6000610111848285016100d8565b91505092915050565b6128dd806101296000396000f3fe608060405234801561001057600080fd5b50600436106100ce5760003560e01c8063520a74bb1161008c5780638a72ea6a116100665780638a72ea6a146102115780639d2ae42b14610245578063a85c38ef14610261578063e2bbb15814610298576100ce565b8063520a74bb146101a957806365135051146101c557806379109baa146101e1576100ce565b8062fdd58e146100d35780631115c24d146101035780632453ffa8146101215780633013ce291461013f5780633a97f8521461015d578063441a3e701461018d575b600080fd5b6100ed60048036038101906100e89190611dba565b6102b4565b6040516100fa9190611e09565b60405180910390f35b61010b610610565b6040516101189190611e09565b60405180910390f35b610129610616565b6040516101369190611e09565b60405180910390f35b61014761061c565b6040516101549190611e83565b60405180910390f35b61017760048036038101906101729190611e9e565b610640565b6040516101849190611e09565b60405180910390f35b6101a760048036038101906101a29190611f05565b610784565b005b6101c360048036038101906101be9190611faa565b610cb0565b005b6101df60048036038101906101da9190611f05565b610f9d565b005b6101fb60048036038101906101f69190611f05565b611062565b6040516102089190611e09565b60405180910390f35b61022b6004803603810190610226919061200a565b611470565b60405161023c959493929190612046565b60405180910390f35b61025f600480360381019061025a919061200a565b6114c6565b005b61027b6004803603810190610276919061200a565b611ade565b60405161028f989796959493929190612129565b60405180910390f35b6102b260048036038101906102ad9190611f05565b611bce565b005b60008060046000848152602001908152602001600020604051806101000160405290816000820160009054906101000a900473ffffffffffffffffffffffffffffffffffffffff1673ffffffffffffffffffffffffffffffffffffffff1673ffffffffffffffffffffffffffffffffffffffff168152602001600182015481526020016002820154815260200160038201548152602001600482015481526020016005820154815260200160068201548152602001600782018054610378906121dd565b80601f01602080910402602001604051908101604052809291908181526020018280546103a4906121dd565b80156103f15780601f106103c6576101008083540402835291602001916103f1565b820191906000526020600020905b8154815290600101906020018083116103d457829003601f168201915b5050505050815250509050600060026000836020015181526020019081526020016000206040518060a00160405290816000820160009054906101000a900473ffffffffffffffffffffffffffffffffffffffff1673ffffffffffffffffffffffffffffffffffffffff1673ffffffffffffffffffffffffffffffffffffffff168152602001600182015481526020016002820154815260200160038201548152602001600482015481525050905060008260800151036104f957816000015173ffffffffffffffffffffffffffffffffffffffff168573ffffffffffffffffffffffffffffffffffffffff16146104ea5760006104f0565b81604001515b9250505061060a565b6000610e106001610e108560c0015142610513919061223d565b61051d9190612271565b610527919061223d565b61053191906122d4565b905060008260200151826105459190612305565b9050826000015173ffffffffffffffffffffffffffffffffffffffff168773ffffffffffffffffffffffffffffffffffffffff16036105a0578360400151811161058f5780610595565b83604001515b94505050505061060a565b836000015173ffffffffffffffffffffffffffffffffffffffff168773ffffffffffffffffffffffffffffffffffffffff160361060557836040015181116105f7578084604001516105f2919061223d565b6105fa565b60005b94505050505061060a565b505050505b92915050565b60015481565b60035481565b60008054906101000a900473ffffffffffffffffffffffffffffffffffffffff1681565b60008060015490506040518060a001604052803373ffffffffffffffffffffffffffffffffffffffff168152602001878152602001868152602001848152602001858152506002600083815260200190815260200160002060008201518160000160006101000a81548173ffffffffffffffffffffffffffffffffffffffff021916908373ffffffffffffffffffffffffffffffffffffffff16021790555060208201518160010155604082015181600201556060820151816003015560808201518160040155905050600180600082825461071c9190612271565b92505081905550803373ffffffffffffffffffffffffffffffffffffffff167f3975cb1f350fd18dd2d2a6a3ab8a24046743072228cbed108e1cb913fb04fd66888888886040516107709493929190612347565b60405180910390a380915050949350505050565b81600060046000838152602001908152602001600020604051806101000160405290816000820160009054906101000a900473ffffffffffffffffffffffffffffffffffffffff1673ffffffffffffffffffffffffffffffffffffffff1673ffffffffffffffffffffffffffffffffffffffff168152602001600182015481526020016002820154815260200160038201548152602001600482015481526020016005820154815260200160068201548152602001600782018054610848906121dd565b80601f0160208091040260200160405190810160405280929190818152602001828054610874906121dd565b80156108c15780601f10610896576101008083540402835291602001916108c1565b820191906000526020600020905b8154815290600101906020018083116108a457829003601f168201915b5050505050815250509050600060026000836020015181526020019081526020016000206040518060a00160405290816000820160009054906101000a900473ffffffffffffffffffffffffffffffffffffffff1673ffffffffffffffffffffffffffffffffffffffff1673ffffffffffffffffffffffffffffffffffffffff16815260200160018201548152602001600282015481526020016003820154815260200160048201548152505090503373ffffffffffffffffffffffffffffffffffffffff16826000015173ffffffffffffffffffffffffffffffffffffffff16141580156109e057503373ffffffffffffffffffffffffffffffffffffffff16816000015173ffffffffffffffffffffffffffffffffffffffff1614155b15610a20576040517f973d02cb000000000000000000000000000000000000000000000000000000008152600401610a17906123d8565b60405180910390fd5b60006004600087815260200190815260200160002090506000816005015414610a75576040517f302e9c3100000000000000000000000000000000000000000000000000000000815260040160405180910390fd5b60008160040154148015610ab15750600260008260010154815260200190815260200160002060040154816003015442610aaf919061223d565b105b15610ae8576040517f8972279700000000000000000000000000000000000000000000000000000000815260040160405180910390fd5b6000610af433886102b4565b905080861115610b3d5733816040517ff6deaa04000000000000000000000000000000000000000000000000000000008152600401610b349291906123f8565b60405180910390fd5b85826002016000828254610b51919061223d565b925050819055508160000160009054906101000a900473ffffffffffffffffffffffffffffffffffffffff1673ffffffffffffffffffffffffffffffffffffffff163373ffffffffffffffffffffffffffffffffffffffff1614610bb9574282600601819055505b60008054906101000a900473ffffffffffffffffffffffffffffffffffffffff1673ffffffffffffffffffffffffffffffffffffffff1663a9059cbb33886040518363ffffffff1660e01b8152600401610c149291906123f8565b6020604051808303816000875af1158015610c33573d6000803e3d6000fd5b505050506040513d601f19601f82011682018060405250810190610c579190612459565b50863373ffffffffffffffffffffffffffffffffffffffff167fdf273cb619d95419a9cd0ec88123a0538c85064229baa6363788f743fff90deb88604051610c9f9190611e09565b60405180910390a350505050505050565b60046000848152602001908152602001600020600101543373ffffffffffffffffffffffffffffffffffffffff166002600083815260200190815260200160002060000160009054906101000a900473ffffffffffffffffffffffffffffffffffffffff1673ffffffffffffffffffffffffffffffffffffffff1614610d6b576040517f973d02cb000000000000000000000000000000000000000000000000000000008152600401610d62906124d2565b60405180910390fd5b6000600460008681526020019081526020016000209050600060026000836001015481526020019081526020016000206040518060a00160405290816000820160009054906101000a900473ffffffffffffffffffffffffffffffffffffffff1673ffffffffffffffffffffffffffffffffffffffff1673ffffffffffffffffffffffffffffffffffffffff16815260200160018201548152602001600282015481526020016003820154815260200160048201548152505090508484836007019182610e399291906126ce565b504282600401819055504282600601819055508060400151826002016000828254610e64919061223d565b9250508190555060008054906101000a900473ffffffffffffffffffffffffffffffffffffffff1673ffffffffffffffffffffffffffffffffffffffff1663a9059cbb826000015183604001516040518363ffffffff1660e01b8152600401610ece9291906123f8565b6020604051808303816000875af1158015610eed573d6000803e3d6000fd5b505050506040513d601f19601f82011682018060405250810190610f119190612459565b50858260000160009054906101000a900473ffffffffffffffffffffffffffffffffffffffff1673ffffffffffffffffffffffffffffffffffffffff16826000015173ffffffffffffffffffffffffffffffffffffffff167fd454e612030a8724808f1949993b3f521069ccdc07764de396a1db7d793c952860405160405180910390a4505050505050565b813373ffffffffffffffffffffffffffffffffffffffff166002600083815260200190815260200160002060000160009054906101000a900473ffffffffffffffffffffffffffffffffffffffff1673ffffffffffffffffffffffffffffffffffffffff1614611042576040517f973d02cb000000000000000000000000000000000000000000000000000000008152600401611039906124d2565b60405180910390fd5b816002600085815260200190815260200160002060030181905550505050565b60008060026000858152602001908152602001600020905060008160030154036110b8576040517f6df5846d00000000000000000000000000000000000000000000000000000000815260040160405180910390fd5b60018160030160008282546110cd919061223d565b925050819055508060020154831015611123573381600201546040517ff6deaa0400000000000000000000000000000000000000000000000000000000815260040161111a9291906123f8565b60405180910390fd5b60008054906101000a900473ffffffffffffffffffffffffffffffffffffffff1673ffffffffffffffffffffffffffffffffffffffff166323b872dd3330866040518463ffffffff1660e01b81526004016111809392919061279e565b6020604051808303816000875af115801561119f573d6000803e3d6000fd5b505050506040513d601f19601f820116820180604052508101906111c39190612459565b50600060035490506040518061010001604052803373ffffffffffffffffffffffffffffffffffffffff168152602001868152602001858152602001428152602001600081526020016000815260200160008152602001604051806020016040528060008152508152506004600083815260200190815260200160002060008201518160000160006101000a81548173ffffffffffffffffffffffffffffffffffffffff021916908373ffffffffffffffffffffffffffffffffffffffff1602179055506020820151816001015560408201518160020155606082015181600301556080820151816004015560a0820151816005015560c0820151816006015560e08201518160070190816112d891906127d5565b509050506001600360008282546112ef9190612271565b92505081905550600560003373ffffffffffffffffffffffffffffffffffffffff1673ffffffffffffffffffffffffffffffffffffffff168152602001908152602001600020819080600181540180825580915050600190039060005260206000200160009091909190915055600560008360000160009054906101000a900473ffffffffffffffffffffffffffffffffffffffff1673ffffffffffffffffffffffffffffffffffffffff1673ffffffffffffffffffffffffffffffffffffffff168152602001908152602001600020819080600181540180825580915050600190039060005260206000200160009091909190915055803373ffffffffffffffffffffffffffffffffffffffff168360000160009054906101000a900473ffffffffffffffffffffffffffffffffffffffff1673ffffffffffffffffffffffffffffffffffffffff167fae8f31d692456de35fe677f5cff304f687f6be18214faaa9be7fceb6135f7d2760405160405180910390a4809250505092915050565b60026020528060005260406000206000915090508060000160009054906101000a900473ffffffffffffffffffffffffffffffffffffffff16908060010154908060020154908060030154908060040154905085565b80600060046000838152602001908152602001600020604051806101000160405290816000820160009054906101000a900473ffffffffffffffffffffffffffffffffffffffff1673ffffffffffffffffffffffffffffffffffffffff1673ffffffffffffffffffffffffffffffffffffffff16815260200160018201548152602001600282015481526020016003820154815260200160048201548152602001600582015481526020016006820154815260200160078201805461158a906121dd565b80601f01602080910402602001604051908101604052809291908181526020018280546115b6906121dd565b80156116035780601f106115d857610100808354040283529160200191611603565b820191906000526020600020905b8154815290600101906020018083116115e657829003601f168201915b5050505050815250509050600060026000836020015181526020019081526020016000206040518060a00160405290816000820160009054906101000a900473ffffffffffffffffffffffffffffffffffffffff1673ffffffffffffffffffffffffffffffffffffffff1673ffffffffffffffffffffffffffffffffffffffff16815260200160018201548152602001600282015481526020016003820154815260200160048201548152505090503373ffffffffffffffffffffffffffffffffffffffff16826000015173ffffffffffffffffffffffffffffffffffffffff161415801561172257503373ffffffffffffffffffffffffffffffffffffffff16816000015173ffffffffffffffffffffffffffffffffffffffff1614155b15611762576040517f973d02cb000000000000000000000000000000000000000000000000000000008152600401611759906123d8565b60405180910390fd5b6000600460008681526020019081526020016000209050600060026000836001015481526020019081526020016000206040518060a00160405290816000820160009054906101000a900473ffffffffffffffffffffffffffffffffffffffff1673ffffffffffffffffffffffffffffffffffffffff1673ffffffffffffffffffffffffffffffffffffffff168152602001600182015481526020016002820154815260200160038201548152602001600482015481525050905081600401544261182d919061223d565b8160800151101561186a576040517f8972279700000000000000000000000000000000000000000000000000000000815260040160405180910390fd5b60008054906101000a900473ffffffffffffffffffffffffffffffffffffffff1673ffffffffffffffffffffffffffffffffffffffff1663a9059cbb8360000160009054906101000a900473ffffffffffffffffffffffffffffffffffffffff166118f98560000160009054906101000a900473ffffffffffffffffffffffffffffffffffffffff168a6102b4565b6040518363ffffffff1660e01b81526004016119169291906123f8565b6020604051808303816000875af1158015611935573d6000803e3d6000fd5b505050506040513d601f19601f820116820180604052508101906119599190612459565b5060008054906101000a900473ffffffffffffffffffffffffffffffffffffffff1673ffffffffffffffffffffffffffffffffffffffff1663a9059cbb82600001516119a984600001518a6102b4565b6040518363ffffffff1660e01b81526004016119c69291906123f8565b6020604051808303816000875af11580156119e5573d6000803e3d6000fd5b505050506040513d601f19601f82011682018060405250810190611a099190612459565b5042826005018190555060008260020181905550858260000160009054906101000a900473ffffffffffffffffffffffffffffffffffffffff1673ffffffffffffffffffffffffffffffffffffffff16600260008560010154815260200190815260200160002060000160009054906101000a900473ffffffffffffffffffffffffffffffffffffffff1673ffffffffffffffffffffffffffffffffffffffff167f5b8893a92a58da9d840b38e085f6c062ae56956e2b74e87c3763333ac3d4a98f60405160405180910390a4505050505050565b60046020528060005260406000206000915090508060000160009054906101000a900473ffffffffffffffffffffffffffffffffffffffff1690806001015490806002015490806003015490806004015490806005015490806006015490806007018054611b4b906121dd565b80601f0160208091040260200160405190810160405280929190818152602001828054611b77906121dd565b8015611bc45780601f10611b9957610100808354040283529160200191611bc4565b820191906000526020600020905b815481529060010190602001808311611ba757829003601f168201915b5050505050905088565b60006004600084815260200190815260200160002090506000816005015414611c23576040517f302e9c3100000000000000000000000000000000000000000000000000000000815260040160405180910390fd5b60008054906101000a900473ffffffffffffffffffffffffffffffffffffffff1673ffffffffffffffffffffffffffffffffffffffff166323b872dd3330856040518463ffffffff1660e01b8152600401611c809392919061279e565b6020604051808303816000875af1158015611c9f573d6000803e3d6000fd5b505050506040513d601f19601f82011682018060405250810190611cc39190612459565b5081816002016000828254611cd89190612271565b92505081905550827fa3af609bf46297028ce551832669030f9effef2b02606d02cbbcc40fe6b47c5583604051611d0f9190611e09565b60405180910390a2505050565b600080fd5b600080fd5b600073ffffffffffffffffffffffffffffffffffffffff82169050919050565b6000611d5182611d26565b9050919050565b611d6181611d46565b8114611d6c57600080fd5b50565b600081359050611d7e81611d58565b92915050565b6000819050919050565b611d9781611d84565b8114611da257600080fd5b50565b600081359050611db481611d8e565b92915050565b60008060408385031215611dd157611dd0611d1c565b5b6000611ddf85828601611d6f565b9250506020611df085828601611da5565b9150509250929050565b611e0381611d84565b82525050565b6000602082019050611e1e6000830184611dfa565b92915050565b6000819050919050565b6000611e49611e44611e3f84611d26565b611e24565b611d26565b9050919050565b6000611e5b82611e2e565b9050919050565b6000611e6d82611e50565b9050919050565b611e7d81611e62565b82525050565b6000602082019050611e986000830184611e74565b92915050565b60008060008060808587031215611eb857611eb7611d1c565b5b6000611ec687828801611da5565b9450506020611ed787828801611da5565b9350506040611ee887828801611da5565b9250506060611ef987828801611da5565b91505092959194509250565b60008060408385031215611f1c57611f1b611d1c565b5b6000611f2a85828601611da5565b9250506020611f3b85828601611da5565b9150509250929050565b600080fd5b600080fd5b600080fd5b60008083601f840112611f6a57611f69611f45565b5b8235905067ffffffffffffffff811115611f8757611f86611f4a565b5b602083019150836001820283011115611fa357611fa2611f4f565b5b9250929050565b600080600060408486031215611fc357611fc2611d1c565b5b6000611fd186828701611da5565b935050602084013567ffffffffffffffff811115611ff257611ff1611d21565b5b611ffe86828701611f54565b92509250509250925092565b6000602082840312156120205761201f611d1c565b5b600061202e84828501611da5565b91505092915050565b61204081611d46565b82525050565b600060a08201905061205b6000830188612037565b6120686020830187611dfa565b6120756040830186611dfa565b6120826060830185611dfa565b61208f6080830184611dfa565b9695505050505050565b600081519050919050565b600082825260208201905092915050565b60005b838110156120d35780820151818401526020810190506120b8565b60008484015250505050565b6000601f19601f8301169050919050565b60006120fb82612099565b61210581856120a4565b93506121158185602086016120b5565b61211e816120df565b840191505092915050565b60006101008201905061213f600083018b612037565b61214c602083018a611dfa565b6121596040830189611dfa565b6121666060830188611dfa565b6121736080830187611dfa565b61218060a0830186611dfa565b61218d60c0830185611dfa565b81810360e083015261219f81846120f0565b90509998505050505050505050565b7f4e487b7100000000000000000000000000000000000000000000000000000000600052602260045260246000fd5b600060028204905060018216806121f557607f821691505b602082108103612208576122076121ae565b5b50919050565b7f4e487b7100000000000000000000000000000000000000000000000000000000600052601160045260246000fd5b600061224882611d84565b915061225383611d84565b925082820390508181111561226b5761226a61220e565b5b92915050565b600061227c82611d84565b915061228783611d84565b925082820190508082111561229f5761229e61220e565b5b92915050565b7f4e487b7100000000000000000000000000000000000000000000000000000000600052601260045260246000fd5b60006122df82611d84565b91506122ea83611d84565b9250826122fa576122f96122a5565b5b828204905092915050565b600061231082611d84565b915061231b83611d84565b925082820261232981611d84565b915082820484148315176123405761233f61220e565b5b5092915050565b600060808201905061235c6000830187611dfa565b6123696020830186611dfa565b6123766040830185611dfa565b6123836060830184611dfa565b95945050505050565b7f4f6e6c792076656e646f72206f7220636c69656e740000000000000000000000600082015250565b60006123c26015836120a4565b91506123cd8261238c565b602082019050919050565b600060208201905081810360008301526123f1816123b5565b9050919050565b600060408201905061240d6000830185612037565b61241a6020830184611dfa565b9392505050565b60008115159050919050565b61243681612421565b811461244157600080fd5b50565b6000815190506124538161242d565b92915050565b60006020828403121561246f5761246e611d1c565b5b600061247d84828501612444565b91505092915050565b7f4f6e6c792076656e646f72000000000000000000000000000000000000000000600082015250565b60006124bc600b836120a4565b91506124c782612486565b602082019050919050565b600060208201905081810360008301526124eb816124af565b9050919050565b600082905092915050565b7f4e487b7100000000000000000000000000000000000000000000000000000000600052604160045260246000fd5b60008190508160005260206000209050919050565b60006020601f8301049050919050565b600082821b905092915050565b60006008830261258e7fffffffffffffffffffffffffffffffffffffffffffffffffffffffffffffffff82612551565b6125988683612551565b95508019841693508086168417925050509392505050565b60006125cb6125c66125c184611d84565b611e24565b611d84565b9050919050565b6000819050919050565b6125e5836125b0565b6125f96125f1826125d2565b84845461255e565b825550505050565b600090565b61260e612601565b6126198184846125dc565b505050565b5b8181101561263d57612632600082612606565b60018101905061261f565b5050565b601f821115612682576126538161252c565b61265c84612541565b8101602085101561266b578190505b61267f61267785612541565b83018261261e565b50505b505050565b600082821c905092915050565b60006126a560001984600802612687565b1980831691505092915050565b60006126be8383612694565b9150826002028217905092915050565b6126d883836124f2565b67ffffffffffffffff8111156126f1576126f06124fd565b5b6126fb82546121dd565b612706828285612641565b6000601f8311600181146127355760008415612723578287013590505b61272d85826126b2565b865550612795565b601f1984166127438661252c565b60005b8281101561276b57848901358255600182019150602085019450602081019050612746565b868310156127885784890135612784601f891682612694565b8355505b6001600288020188555050505b50505050505050565b60006060820190506127b36000830186612037565b6127c06020830185612037565b6127cd6040830184611dfa565b949350505050565b6127de82612099565b67ffffffffffffffff8111156127f7576127f66124fd565b5b61280182546121dd565b61280c828285612641565b600060209050601f83116001811461283f576000841561282d578287015190505b61283785826126b2565b86555061289f565b601f19841661284d8661252c565b60005b8281101561287557848901518255600182019150602085019450602081019050612850565b86831015612892578489015161288e601f891682612694565b8355505b6001600288020188555050505b50505050505056fea26469706673582212209c802c97d69372efc75d24999dab3312c2daffc5a07fa868e9dd7a6d78cf22b764736f6c634300081c0033",
  "linkReferences": {},
  "deployedLinkReferences": {}
}