{
  "_format": "hh-sol-artifact-1",
  "contractName": "Marketplace",
  "sourceName": "contracts/Marketplace.sol",
  "abi": [
    {
      "inputs": [
        {
          "internalType": "contract IERC20",
          "name": "_paymentToken",
          "type": "address"
        }
      ],
      "stateMutability": "nonpayable",
      "type": "constructor"
    },
    {
      "inputs": [],
      "name": "FulfillmentPeriodExpired",
      "type": "error"
    },
    {
      "inputs": [
        {
          "internalType": "address",
          "name": "user",
          "type": "address"
        },
        {
          "internalType": "uint256",
          "name": "amount",
          "type": "uint256"
        }
      ],
      "name": "InsufficientBalance",
      "type": "error"
    },
    {
      "inputs": [],
      "name": "OfferNotFound",
      "type": "error"
    },
    {
      "inputs": [],
      "name": "OrderAlreadyFulfilled",
      "type": "error"
    },
    {
      "inputs": [],
      "name": "OrderAlreadyTerminated",
      "type": "error"
    },
    {
      "inputs": [],
      "name": "OrderNotFulfilled",
      "type": "error"
    },
    {
      "inputs": [],
      "name": "OrderNotVerified",
      "type": "error"
    },
    {
      "inputs": [],
      "name": "ReentrancyGuardReentrantCall",
      "type": "error"
    },
    {
      "inputs": [
        {
          "internalType": "string",
          "name": "message",
          "type": "string"
        }
      ],
      "name": "Unauthorized",
      "type": "error"
    },
    {
      "anonymous": false,
      "inputs": [
        {
          "indexed": true,
          "internalType": "uint256",
          "name": "orderId",
          "type": "uint256"
        },
        {
          "indexed": false,
          "internalType": "uint256",
          "name": "amount",
          "type": "uint256"
        }
      ],
      "name": "Deposit",
      "type": "event"
    },
    {
      "anonymous": false,
      "inputs": [
        {
          "indexed": true,
          "internalType": "address",
          "name": "vendor",
          "type": "address"
        },
        {
          "indexed": true,
          "internalType": "uint256",
          "name": "offerId",
          "type": "uint256"
        },
        {
          "indexed": false,
          "internalType": "uint256",
          "name": "pricePerMonth",
          "type": "uint256"
        },
        {
          "indexed": false,
          "internalType": "uint256",
          "name": "units",
          "type": "uint256"
        }
      ],
      "name": "NewOffer",
      "type": "event"
    },
    {
      "anonymous": false,
      "inputs": [
        {
          "indexed": true,
          "internalType": "address",
          "name": "vendor",
          "type": "address"
        },
        {
          "indexed": true,
          "internalType": "address",
          "name": "client",
          "type": "address"
        },
        {
          "indexed": true,
          "internalType": "uint256",
          "name": "orderId",
          "type": "uint256"
        }
      ],
      "name": "NewOrder",
      "type": "event"
    },
    {
      "anonymous": false,
      "inputs": [
        {
          "indexed": true,
          "internalType": "address",
          "name": "vendor",
          "type": "address"
        },
        {
          "indexed": true,
          "internalType": "address",
          "name": "client",
          "type": "address"
        },
        {
          "indexed": true,
          "internalType": "uint256",
          "name": "orderId",
          "type": "uint256"
        }
      ],
      "name": "OrderFulfilled",
      "type": "event"
    },
    {
      "anonymous": false,
      "inputs": [
        {
          "indexed": true,
          "internalType": "address",
          "name": "vendor",
          "type": "address"
        },
        {
          "indexed": true,
          "internalType": "address",
          "name": "client",
          "type": "address"
        },
        {
          "indexed": true,
          "internalType": "uint256",
          "name": "orderId",
          "type": "uint256"
        }
      ],
      "name": "OrderTerminated",
      "type": "event"
    },
    {
      "anonymous": false,
      "inputs": [
        {
          "indexed": true,
          "internalType": "address",
          "name": "vendor",
          "type": "address"
        },
        {
          "indexed": true,
          "internalType": "address",
          "name": "client",
          "type": "address"
        },
        {
          "indexed": true,
          "internalType": "uint256",
          "name": "orderId",
          "type": "uint256"
        }
      ],
      "name": "OrderVerifier",
      "type": "event"
    },
    {
      "anonymous": false,
      "inputs": [
        {
          "indexed": true,
          "internalType": "address",
          "name": "user",
          "type": "address"
        },
        {
          "indexed": true,
          "internalType": "uint256",
          "name": "orderId",
          "type": "uint256"
        },
        {
          "indexed": false,
          "internalType": "uint256",
          "name": "amount",
          "type": "uint256"
        }
      ],
      "name": "Withdrawal",
      "type": "event"
    },
    {
      "inputs": [],
      "name": "FULFILLMENT_PERIOD",
      "outputs": [
        {
          "internalType": "uint256",
          "name": "",
          "type": "uint256"
        }
      ],
      "stateMutability": "view",
      "type": "function"
    },
    {
      "inputs": [],
      "name": "VERIFICATION_PERIOD",
      "outputs": [
        {
          "internalType": "uint256",
          "name": "",
          "type": "uint256"
        }
      ],
      "stateMutability": "view",
      "type": "function"
    },
    {
      "inputs": [
        {
          "internalType": "address",
          "name": "_address",
          "type": "address"
        },
        {
          "internalType": "uint256",
          "name": "_orderId",
          "type": "uint256"
        }
      ],
      "name": "balanceOf",
      "outputs": [
        {
          "internalType": "uint256",
          "name": "",
          "type": "uint256"
        }
      ],
      "stateMutability": "view",
      "type": "function"
    },
    {
      "inputs": [
        {
          "internalType": "uint256",
          "name": "_pricePerMonth",
          "type": "uint256"
        },
        {
          "internalType": "uint256",
          "name": "_units",
          "type": "uint256"
        },
        {
          "internalType": "string",
          "name": "_metadata",
          "type": "string"
        }
      ],
      "name": "createOffer",
      "outputs": [
        {
          "internalType": "uint256",
          "name": "",
          "type": "uint256"
        }
      ],
      "stateMutability": "nonpayable",
      "type": "function"
    },
    {
      "inputs": [
        {
          "internalType": "uint256",
          "name": "_offerId",
          "type": "uint256"
        },
        {
          "internalType": "uint256",
          "name": "_initialCommitment",
          "type": "uint256"
        },
        {
          "internalType": "string",
          "name": "_setupMetadata",
          "type": "string"
        }
      ],
      "name": "createOrder",
      "outputs": [
        {
          "internalType": "uint256",
          "name": "",
          "type": "uint256"
        }
      ],
      "stateMutability": "nonpayable",
      "type": "function"
    },
    {
      "inputs": [
        {
          "internalType": "uint256",
          "name": "_orderId",
          "type": "uint256"
        },
        {
          "internalType": "uint256",
          "name": "_amount",
          "type": "uint256"
        }
      ],
      "name": "deposit",
      "outputs": [],
      "stateMutability": "nonpayable",
      "type": "function"
    },
    {
      "inputs": [
        {
          "internalType": "uint256",
          "name": "_orderId",
          "type": "uint256"
        },
        {
          "internalType": "string",
          "name": "_deploymentMetadata",
          "type": "string"
        }
      ],
      "name": "fulfillOrder",
      "outputs": [],
      "stateMutability": "nonpayable",
      "type": "function"
    },
    {
      "inputs": [
        {
          "internalType": "address",
          "name": "_user",
          "type": "address"
        }
      ],
      "name": "getClientOrders",
      "outputs": [
        {
          "components": [
            {
              "internalType": "uint256",
              "name": "id",
              "type": "uint256"
            },
            {
              "internalType": "address",
              "name": "client",
              "type": "address"
            },
            {
              "internalType": "uint256",
              "name": "offerId",
              "type": "uint256"
            },
            {
              "internalType": "uint256",
              "name": "createdAt",
              "type": "uint256"
            },
            {
              "internalType": "uint256",
              "name": "fulfilledAt",
              "type": "uint256"
            },
            {
              "internalType": "uint256",
              "name": "terminatedAt",
              "type": "uint256"
            },
            {
              "internalType": "uint256",
              "name": "lastWithdrawal",
              "type": "uint256"
            },
            {
              "internalType": "uint256",
              "name": "balance",
              "type": "uint256"
            },
            {
              "internalType": "string",
              "name": "setupMetadata",
              "type": "string"
            },
            {
              "internalType": "string",
              "name": "deploymentMetadata",
              "type": "string"
            },
            {
              "components": [
                {
                  "internalType": "address",
                  "name": "vendor",
                  "type": "address"
                },
                {
                  "internalType": "uint256",
                  "name": "pricePerMonth",
                  "type": "uint256"
                },
                {
                  "internalType": "uint256",
                  "name": "remainingUnits",
                  "type": "uint256"
                },
                {
                  "internalType": "string",
                  "name": "metadata",
                  "type": "string"
                }
              ],
              "internalType": "struct IMarketplaceStructs.Offer",
              "name": "offer",
              "type": "tuple"
            }
          ],
          "internalType": "struct IMarketplaceStructs.OrderWithOffer[]",
          "name": "",
          "type": "tuple[]"
        }
      ],
      "stateMutability": "view",
      "type": "function"
    },
    {
      "inputs": [
        {
          "internalType": "uint256",
          "name": "_orderId",
          "type": "uint256"
        }
      ],
      "name": "getOrder",
      "outputs": [
        {
          "components": [
            {
              "internalType": "uint256",
              "name": "id",
              "type": "uint256"
            },
            {
              "internalType": "address",
              "name": "client",
              "type": "address"
            },
            {
              "internalType": "uint256",
              "name": "offerId",
              "type": "uint256"
            },
            {
              "internalType": "uint256",
              "name": "createdAt",
              "type": "uint256"
            },
            {
              "internalType": "uint256",
              "name": "fulfilledAt",
              "type": "uint256"
            },
            {
              "internalType": "uint256",
              "name": "terminatedAt",
              "type": "uint256"
            },
            {
              "internalType": "uint256",
              "name": "lastWithdrawal",
              "type": "uint256"
            },
            {
              "internalType": "uint256",
              "name": "balance",
              "type": "uint256"
            },
            {
              "internalType": "string",
              "name": "setupMetadata",
              "type": "string"
            },
            {
              "internalType": "string",
              "name": "deploymentMetadata",
              "type": "string"
            },
            {
              "components": [
                {
                  "internalType": "address",
                  "name": "vendor",
                  "type": "address"
                },
                {
                  "internalType": "uint256",
                  "name": "pricePerMonth",
                  "type": "uint256"
                },
                {
                  "internalType": "uint256",
                  "name": "remainingUnits",
                  "type": "uint256"
                },
                {
                  "internalType": "string",
                  "name": "metadata",
                  "type": "string"
                }
              ],
              "internalType": "struct IMarketplaceStructs.Offer",
              "name": "offer",
              "type": "tuple"
            }
          ],
          "internalType": "struct IMarketplaceStructs.OrderWithOffer",
          "name": "",
          "type": "tuple"
        }
      ],
      "stateMutability": "view",
      "type": "function"
    },
    {
      "inputs": [
        {
          "internalType": "address",
          "name": "_user",
          "type": "address"
        }
      ],
      "name": "getVendorOrders",
      "outputs": [
        {
          "internalType": "uint256[]",
          "name": "",
          "type": "uint256[]"
        }
      ],
      "stateMutability": "view",
      "type": "function"
    },
    {
      "inputs": [],
      "name": "offerCount",
      "outputs": [
        {
          "internalType": "uint256",
          "name": "",
          "type": "uint256"
        }
      ],
      "stateMutability": "view",
      "type": "function"
    },
    {
      "inputs": [
        {
          "internalType": "uint256",
          "name": "",
          "type": "uint256"
        }
      ],
      "name": "offers",
      "outputs": [
        {
          "internalType": "address",
          "name": "vendor",
          "type": "address"
        },
        {
          "internalType": "uint256",
          "name": "pricePerMonth",
          "type": "uint256"
        },
        {
          "internalType": "uint256",
          "name": "remainingUnits",
          "type": "uint256"
        },
        {
          "internalType": "string",
          "name": "metadata",
          "type": "string"
        }
      ],
      "stateMutability": "view",
      "type": "function"
    },
    {
      "inputs": [],
      "name": "orderCount",
      "outputs": [
        {
          "internalType": "uint256",
          "name": "",
          "type": "uint256"
        }
      ],
      "stateMutability": "view",
      "type": "function"
    },
    {
      "inputs": [
        {
          "internalType": "uint256",
          "name": "",
          "type": "uint256"
        }
      ],
      "name": "orders",
      "outputs": [
        {
          "internalType": "address",
          "name": "client",
          "type": "address"
        },
        {
          "internalType": "uint256",
          "name": "offerId",
          "type": "uint256"
        },
        {
          "internalType": "uint256",
          "name": "balance",
          "type": "uint256"
        },
        {
          "internalType": "uint256",
          "name": "createdAt",
          "type": "uint256"
        },
        {
          "internalType": "uint256",
          "name": "fulfilledAt",
          "type": "uint256"
        },
        {
          "internalType": "uint256",
          "name": "terminatedAt",
          "type": "uint256"
        },
        {
          "internalType": "uint256",
          "name": "lastWithdrawal",
          "type": "uint256"
        },
        {
          "internalType": "string",
          "name": "setupMetadata",
          "type": "string"
        },
        {
          "internalType": "string",
          "name": "deploymentMetadata",
          "type": "string"
        }
      ],
      "stateMutability": "view",
      "type": "function"
    },
    {
      "inputs": [],
      "name": "paymentToken",
      "outputs": [
        {
          "internalType": "contract IERC20",
          "name": "",
          "type": "address"
        }
      ],
      "stateMutability": "view",
      "type": "function"
    },
    {
      "inputs": [
        {
          "internalType": "uint256",
          "name": "_offerId",
          "type": "uint256"
        },
        {
          "internalType": "uint256",
          "name": "_remainingUnits",
          "type": "uint256"
        }
      ],
      "name": "setOfferRemainingUnits",
      "outputs": [],
      "stateMutability": "nonpayable",
      "type": "function"
    },
    {
      "inputs": [
        {
          "internalType": "uint256",
          "name": "_orderId",
          "type": "uint256"
        }
      ],
      "name": "terminateOrder",
      "outputs": [],
      "stateMutability": "nonpayable",
      "type": "function"
    },
    {
      "inputs": [
        {
          "internalType": "uint256",
          "name": "_orderId",
          "type": "uint256"
        },
        {
          "internalType": "uint256",
          "name": "_amount",
          "type": "uint256"
        }
      ],
      "name": "withdraw",
      "outputs": [],
      "stateMutability": "nonpayable",
      "type": "function"
    }
  ],
  "bytecode": "0x608060405234801561001057600080fd5b50604051614017380380614017833981810160405281019061003291906100f6565b600160008190555080600160006101000a81548173ffffffffffffffffffffffffffffffffffffffff021916908373ffffffffffffffffffffffffffffffffffffffff16021790555050610123565b600080fd5b600073ffffffffffffffffffffffffffffffffffffffff82169050919050565b60006100b182610086565b9050919050565b60006100c3826100a6565b9050919050565b6100d3816100b8565b81146100de57600080fd5b50565b6000815190506100f0816100ca565b92915050565b60006020828403121561010c5761010b610081565b5b600061011a848285016100e1565b91505092915050565b613ee5806101326000396000f3fe608060405234801561001057600080fd5b50600436106101155760003560e01c8063521523ff116100a25780638a72ea6a116100715780638a72ea6a146102f45780639d2ae42b14610327578063a85c38ef14610343578063d09ef2411461037b578063e2bbb158146103ab57610115565b8063521523ff1461025a5780635aeee8cb146102785780636061f754146102a857806365135051146102d857610115565b806338e5982d116100e957806338e5982d146101a45780633ea1e38f146101d4578063441a3e70146101f2578063480b22df1461020e578063520a74bb1461023e57610115565b8062fdd58e1461011a5780631115c24d1461014a5780632453ffa8146101685780633013ce2914610186575b600080fd5b610134600480360381019061012f9190612eca565b6103c7565b6040516101419190612f19565b60405180910390f35b6101526107f5565b60405161015f9190612f19565b60405180910390f35b6101706107fb565b60405161017d9190612f19565b60405180910390f35b61018e610801565b60405161019b9190612f93565b60405180910390f35b6101be60048036038101906101b99190612fae565b610827565b6040516101cb9190613099565b60405180910390f35b6101dc6108be565b6040516101e99190612f19565b60405180910390f35b61020c600480360381019061020791906130bb565b6108c5565b005b61022860048036038101906102239190612fae565b610c70565b60405161023591906133bc565b60405180910390f35b61025860048036038101906102539190613443565b611143565b005b61026261151a565b60405161026f9190612f19565b60405180910390f35b610292600480360381019061028d91906134a3565b611521565b60405161029f9190612f19565b60405180910390f35b6102c260048036038101906102bd91906134a3565b6116a2565b6040516102cf9190612f19565b60405180910390f35b6102f260048036038101906102ed91906130bb565b6117e3565b005b61030e60048036038101906103099190613517565b611931565b60405161031e949392919061359d565b60405180910390f35b610341600480360381019061033c9190613517565b611a09565b005b61035d60048036038101906103589190613517565b6122c7565b604051610372999897969594939291906135e9565b60405180910390f35b61039560048036038101906103909190613517565b612445565b6040516103a29190613781565b60405180910390f35b6103c560048036038101906103c091906130bb565b6127db565b005b60008060056000848152602001908152602001600020604051806101200160405290816000820160009054906101000a900473ffffffffffffffffffffffffffffffffffffffff1673ffffffffffffffffffffffffffffffffffffffff1673ffffffffffffffffffffffffffffffffffffffff16815260200160018201548152602001600282015481526020016003820154815260200160048201548152602001600582015481526020016006820154815260200160078201805461048b906137d2565b80601f01602080910402602001604051908101604052809291908181526020018280546104b7906137d2565b80156105045780601f106104d957610100808354040283529160200191610504565b820191906000526020600020905b8154815290600101906020018083116104e757829003601f168201915b5050505050815260200160088201805461051d906137d2565b80601f0160208091040260200160405190810160405280929190818152602001828054610549906137d2565b80156105965780601f1061056b57610100808354040283529160200191610596565b820191906000526020600020905b81548152906001019060200180831161057957829003601f168201915b5050505050815250509050600060036000836020015181526020019081526020016000206040518060800160405290816000820160009054906101000a900473ffffffffffffffffffffffffffffffffffffffff1673ffffffffffffffffffffffffffffffffffffffff1673ffffffffffffffffffffffffffffffffffffffff168152602001600182015481526020016002820154815260200160038201805461063f906137d2565b80601f016020809104026020016040519081016040528092919081815260200182805461066b906137d2565b80156106b85780601f1061068d576101008083540402835291602001916106b8565b820191906000526020600020905b81548152906001019060200180831161069b57829003601f168201915b5050505050815250509050600082608001510361071c57816000015173ffffffffffffffffffffffffffffffffffffffff168573ffffffffffffffffffffffffffffffffffffffff161461070d576000610713565b81604001515b925050506107ef565b600062278d00600162278d008560c00151426107389190613832565b6107429190613866565b61074c9190613832565b61075691906138c9565b9050600082602001518261076a91906138fa565b9050826000015173ffffffffffffffffffffffffffffffffffffffff168773ffffffffffffffffffffffffffffffffffffffff16036107c557836040015181116107b457806107ba565b83604001515b9450505050506107ef565b836040015181116107e5578084604001516107e09190613832565b6107e8565b60005b9450505050505b92915050565b60025481565b60045481565b600160009054906101000a900473ffffffffffffffffffffffffffffffffffffffff1681565b6060600760008373ffffffffffffffffffffffffffffffffffffffff1673ffffffffffffffffffffffffffffffffffffffff1681526020019081526020016000208054806020026020016040519081016040528092919081815260200182805480156108b257602002820191906000526020600020905b81548152602001906001019080831161089e575b50505050509050919050565b6201518081565b6000823373ffffffffffffffffffffffffffffffffffffffff166003600084815260200190815260200160002060000160009054906101000a900473ffffffffffffffffffffffffffffffffffffffff1673ffffffffffffffffffffffffffffffffffffffff16141580156109b257503373ffffffffffffffffffffffffffffffffffffffff16600360006005600085815260200190815260200160002060010154815260200190815260200160002060000160009054906101000a900473ffffffffffffffffffffffffffffffffffffffff1673ffffffffffffffffffffffffffffffffffffffff1614155b156109f2576040517f973d02cb0000000000000000000000000000000000000000000000000000000081526004016109e990613988565b60405180910390fd5b6109fa61292b565b60006005600086815260200190815260200160002090506000816005015414610a4f576040517f302e9c3100000000000000000000000000000000000000000000000000000000815260040160405180910390fd5b60008160040154148015610a74575062015180816003015442610a729190613832565b105b15610aab576040517f8972279700000000000000000000000000000000000000000000000000000000815260040160405180910390fd5b6202a300816004015442610abf9190613832565b1015610af7576040517f6cfd7e2700000000000000000000000000000000000000000000000000000000815260040160405180910390fd5b6000610b0333876103c7565b905080851115610b4c5733816040517ff6deaa04000000000000000000000000000000000000000000000000000000008152600401610b439291906139a8565b60405180910390fd5b84826002016000828254610b609190613832565b92505081905550428260060181905550600160009054906101000a900473ffffffffffffffffffffffffffffffffffffffff1673ffffffffffffffffffffffffffffffffffffffff1663a9059cbb33876040518363ffffffff1660e01b8152600401610bcd9291906139a8565b6020604051808303816000875af1158015610bec573d6000803e3d6000fd5b505050506040513d601f19601f82011682018060405250810190610c109190613a09565b50853373ffffffffffffffffffffffffffffffffffffffff167fdf273cb619d95419a9cd0ec88123a0538c85064229baa6363788f743fff90deb87604051610c589190612f19565b60405180910390a35050610c6a612971565b50505050565b60606000600660008473ffffffffffffffffffffffffffffffffffffffff1673ffffffffffffffffffffffffffffffffffffffff168152602001908152602001600020805480602002602001604051908101604052809291908181526020018280548015610cfd57602002820191906000526020600020905b815481526020019060010190808311610ce9575b505050505090506000815167ffffffffffffffff811115610d2157610d20613a36565b5b604051908082528060200260200182016040528015610d5a57816020015b610d47612d78565b815260200190600190039081610d3f5790505b50905060005b8251811015611138576000838281518110610d7e57610d7d613a65565b5b60200260200101519050600060056000838152602001908152602001600020604051806101200160405290816000820160009054906101000a900473ffffffffffffffffffffffffffffffffffffffff1673ffffffffffffffffffffffffffffffffffffffff1673ffffffffffffffffffffffffffffffffffffffff168152602001600182015481526020016002820154815260200160038201548152602001600482015481526020016005820154815260200160068201548152602001600782018054610e4b906137d2565b80601f0160208091040260200160405190810160405280929190818152602001828054610e77906137d2565b8015610ec45780601f10610e9957610100808354040283529160200191610ec4565b820191906000526020600020905b815481529060010190602001808311610ea757829003601f168201915b50505050508152602001600882018054610edd906137d2565b80601f0160208091040260200160405190810160405280929190818152602001828054610f09906137d2565b8015610f565780601f10610f2b57610100808354040283529160200191610f56565b820191906000526020600020905b815481529060010190602001808311610f3957829003601f168201915b5050505050815250509050600060036000836020015181526020019081526020016000206040518060800160405290816000820160009054906101000a900473ffffffffffffffffffffffffffffffffffffffff1673ffffffffffffffffffffffffffffffffffffffff1673ffffffffffffffffffffffffffffffffffffffff1681526020016001820154815260200160028201548152602001600382018054610fff906137d2565b80601f016020809104026020016040519081016040528092919081815260200182805461102b906137d2565b80156110785780601f1061104d57610100808354040283529160200191611078565b820191906000526020600020905b81548152906001019060200180831161105b57829003601f168201915b5050505050815250509050604051806101600160405280848152602001836000015173ffffffffffffffffffffffffffffffffffffffff1681526020018360200151815260200183606001518152602001836080015181526020018360a0015181526020018360c001518152602001836040015181526020018360e00151815260200183610100015181526020018281525085858151811061111d5761111c613a65565b5b60200260200101819052505050508080600101915050610d60565b508092505050919050565b6000833373ffffffffffffffffffffffffffffffffffffffff166003600084815260200190815260200160002060000160009054906101000a900473ffffffffffffffffffffffffffffffffffffffff1673ffffffffffffffffffffffffffffffffffffffff161415801561123057503373ffffffffffffffffffffffffffffffffffffffff16600360006005600085815260200190815260200160002060010154815260200190815260200160002060000160009054906101000a900473ffffffffffffffffffffffffffffffffffffffff1673ffffffffffffffffffffffffffffffffffffffff1614155b15611270576040517f973d02cb00000000000000000000000000000000000000000000000000000000815260040161126790613988565b60405180910390fd5b6000600560008781526020019081526020016000209050600060036000836001015481526020019081526020016000206040518060800160405290816000820160009054906101000a900473ffffffffffffffffffffffffffffffffffffffff1673ffffffffffffffffffffffffffffffffffffffff1673ffffffffffffffffffffffffffffffffffffffff1681526020016001820154815260200160028201548152602001600382018054611325906137d2565b80601f0160208091040260200160405190810160405280929190818152602001828054611351906137d2565b801561139e5780601f106113735761010080835404028352916020019161139e565b820191906000526020600020905b81548152906001019060200180831161138157829003601f168201915b505050505081525050905060008260040154146113e7576040517f6ba3851700000000000000000000000000000000000000000000000000000000815260040160405180910390fd5b6000826005015414611425576040517f302e9c3100000000000000000000000000000000000000000000000000000000815260040160405180910390fd5b426201518083600301546114399190613866565b1015611471576040517f47bbb51800000000000000000000000000000000000000000000000000000000815260040160405180910390fd5b8585836008019182611484929190613c41565b50428260040181905550868260000160009054906101000a900473ffffffffffffffffffffffffffffffffffffffff1673ffffffffffffffffffffffffffffffffffffffff16826000015173ffffffffffffffffffffffffffffffffffffffff167fd454e612030a8724808f1949993b3f521069ccdc07764de396a1db7d793c952860405160405180910390a450505050505050565b6202a30081565b600080600254905060405180608001604052803373ffffffffffffffffffffffffffffffffffffffff16815260200187815260200186815260200185858080601f016020809104026020016040519081016040528093929190818152602001838380828437600081840152601f19601f820116905080830192505050505050508152506003600083815260200190815260200160002060008201518160000160006101000a81548173ffffffffffffffffffffffffffffffffffffffff021916908373ffffffffffffffffffffffffffffffffffffffff160217905550602082015181600101556040820151816002015560608201518160030190816116279190613d11565b5090505060016002600082825461163e9190613866565b92505081905550803373ffffffffffffffffffffffffffffffffffffffff167f46e1b315f97f163946a7669290cc0a878c4cd6fed201b139c7afe5828354cd8d888860405161168e929190613de3565b60405180910390a380915050949350505050565b60008060036000878152602001908152602001600020905060008160020154036116f8576040517f6df5846d00000000000000000000000000000000000000000000000000000000815260040160405180910390fd5b600181600201600082825461170d9190613832565b9250508190555060006117228787878761297b565b9050600160009054906101000a900473ffffffffffffffffffffffffffffffffffffffff1673ffffffffffffffffffffffffffffffffffffffff166323b872dd333085600101548a61177491906138fa565b6040518463ffffffff1660e01b815260040161179293929190613e0c565b6020604051808303816000875af11580156117b1573d6000803e3d6000fd5b505050506040513d601f19601f820116820180604052508101906117d59190613a09565b508092505050949350505050565b8160003373ffffffffffffffffffffffffffffffffffffffff166003600084815260200190815260200160002060000160009054906101000a900473ffffffffffffffffffffffffffffffffffffffff1673ffffffffffffffffffffffffffffffffffffffff16141580156118d057503373ffffffffffffffffffffffffffffffffffffffff16600360006005600085815260200190815260200160002060010154815260200190815260200160002060000160009054906101000a900473ffffffffffffffffffffffffffffffffffffffff1673ffffffffffffffffffffffffffffffffffffffff1614155b15611910576040517f973d02cb00000000000000000000000000000000000000000000000000000000815260040161190790613988565b60405180910390fd5b82600360008681526020019081526020016000206002018190555050505050565b60036020528060005260406000206000915090508060000160009054906101000a900473ffffffffffffffffffffffffffffffffffffffff1690806001015490806002015490806003018054611986906137d2565b80601f01602080910402602001604051908101604052809291908181526020018280546119b2906137d2565b80156119ff5780601f106119d4576101008083540402835291602001916119ff565b820191906000526020600020905b8154815290600101906020018083116119e257829003601f168201915b5050505050905084565b80600060056000838152602001908152602001600020604051806101200160405290816000820160009054906101000a900473ffffffffffffffffffffffffffffffffffffffff1673ffffffffffffffffffffffffffffffffffffffff1673ffffffffffffffffffffffffffffffffffffffff168152602001600182015481526020016002820154815260200160038201548152602001600482015481526020016005820154815260200160068201548152602001600782018054611acd906137d2565b80601f0160208091040260200160405190810160405280929190818152602001828054611af9906137d2565b8015611b465780601f10611b1b57610100808354040283529160200191611b46565b820191906000526020600020905b815481529060010190602001808311611b2957829003601f168201915b50505050508152602001600882018054611b5f906137d2565b80601f0160208091040260200160405190810160405280929190818152602001828054611b8b906137d2565b8015611bd85780601f10611bad57610100808354040283529160200191611bd8565b820191906000526020600020905b815481529060010190602001808311611bbb57829003601f168201915b5050505050815250509050600060036000836020015181526020019081526020016000206040518060800160405290816000820160009054906101000a900473ffffffffffffffffffffffffffffffffffffffff1673ffffffffffffffffffffffffffffffffffffffff1673ffffffffffffffffffffffffffffffffffffffff1681526020016001820154815260200160028201548152602001600382018054611c81906137d2565b80601f0160208091040260200160405190810160405280929190818152602001828054611cad906137d2565b8015611cfa5780601f10611ccf57610100808354040283529160200191611cfa565b820191906000526020600020905b815481529060010190602001808311611cdd57829003601f168201915b50505050508152505090503373ffffffffffffffffffffffffffffffffffffffff16826000015173ffffffffffffffffffffffffffffffffffffffff1614158015611d7557503373ffffffffffffffffffffffffffffffffffffffff16816000015173ffffffffffffffffffffffffffffffffffffffff1614155b15611db5576040517f973d02cb000000000000000000000000000000000000000000000000000000008152600401611dac90613e8f565b60405180910390fd5b611dbd61292b565b6000600560008681526020019081526020016000209050600060036000836001015481526020019081526020016000206040518060800160405290816000820160009054906101000a900473ffffffffffffffffffffffffffffffffffffffff1673ffffffffffffffffffffffffffffffffffffffff1673ffffffffffffffffffffffffffffffffffffffff1681526020016001820154815260200160028201548152602001600382018054611e72906137d2565b80601f0160208091040260200160405190810160405280929190818152602001828054611e9e906137d2565b8015611eeb5780601f10611ec057610100808354040283529160200191611eeb565b820191906000526020600020905b815481529060010190602001808311611ece57829003601f168201915b50505050508152505090506000826003015442611f089190613832565b90506000836004015442611f1c9190613832565b905060008460040154148015611f3457506201518082105b15611f6b576040517f8972279700000000000000000000000000000000000000000000000000000000815260040160405180910390fd5b6202a30081111561211f57600160009054906101000a900473ffffffffffffffffffffffffffffffffffffffff1673ffffffffffffffffffffffffffffffffffffffff1663a9059cbb8560000160009054906101000a900473ffffffffffffffffffffffffffffffffffffffff166120078760000160009054906101000a900473ffffffffffffffffffffffffffffffffffffffff168c6103c7565b6040518363ffffffff1660e01b81526004016120249291906139a8565b6020604051808303816000875af1158015612043573d6000803e3d6000fd5b505050506040513d601f19601f820116820180604052508101906120679190613a09565b50600160009054906101000a900473ffffffffffffffffffffffffffffffffffffffff1673ffffffffffffffffffffffffffffffffffffffff1663a9059cbb84600001516120b986600001518c6103c7565b6040518363ffffffff1660e01b81526004016120d69291906139a8565b6020604051808303816000875af11580156120f5573d6000803e3d6000fd5b505050506040513d601f19601f820116820180604052508101906121199190613a09565b506121e9565b600160009054906101000a900473ffffffffffffffffffffffffffffffffffffffff1673ffffffffffffffffffffffffffffffffffffffff1663a9059cbb8560000160009054906101000a900473ffffffffffffffffffffffffffffffffffffffff1686600201546040518363ffffffff1660e01b81526004016121a49291906139a8565b6020604051808303816000875af11580156121c3573d6000803e3d6000fd5b505050506040513d601f19601f820116820180604052508101906121e79190613a09565b505b42846005018190555060008460020181905550878460000160009054906101000a900473ffffffffffffffffffffffffffffffffffffffff1673ffffffffffffffffffffffffffffffffffffffff16600360008760010154815260200190815260200160002060000160009054906101000a900473ffffffffffffffffffffffffffffffffffffffff1673ffffffffffffffffffffffffffffffffffffffff167f5b8893a92a58da9d840b38e085f6c062ae56956e2b74e87c3763333ac3d4a98f60405160405180910390a4505050506122c1612971565b50505050565b60056020528060005260406000206000915090508060000160009054906101000a900473ffffffffffffffffffffffffffffffffffffffff1690806001015490806002015490806003015490806004015490806005015490806006015490806007018054612334906137d2565b80601f0160208091040260200160405190810160405280929190818152602001828054612360906137d2565b80156123ad5780601f10612382576101008083540402835291602001916123ad565b820191906000526020600020905b81548152906001019060200180831161239057829003601f168201915b5050505050908060080180546123c2906137d2565b80601f01602080910402602001604051908101604052809291908181526020018280546123ee906137d2565b801561243b5780601f106124105761010080835404028352916020019161243b565b820191906000526020600020905b81548152906001019060200180831161241e57829003601f168201915b5050505050905089565b61244d612d78565b6040518061016001604052808381526020016005600085815260200190815260200160002060000160009054906101000a900473ffffffffffffffffffffffffffffffffffffffff1673ffffffffffffffffffffffffffffffffffffffff16815260200160056000858152602001908152602001600020600101548152602001600560008581526020019081526020016000206003015481526020016005600085815260200190815260200160002060040154815260200160056000858152602001908152602001600020600501548152602001600560008581526020019081526020016000206006015481526020016005600085815260200190815260200160002060020154815260200160056000858152602001908152602001600020600701805461257a906137d2565b80601f01602080910402602001604051908101604052809291908181526020018280546125a6906137d2565b80156125f35780601f106125c8576101008083540402835291602001916125f3565b820191906000526020600020905b8154815290600101906020018083116125d657829003601f168201915b5050505050815260200160056000858152602001908152602001600020600801805461261e906137d2565b80601f016020809104026020016040519081016040528092919081815260200182805461264a906137d2565b80156126975780601f1061266c57610100808354040283529160200191612697565b820191906000526020600020905b81548152906001019060200180831161267a57829003601f168201915b5050505050815260200160036000600560008781526020019081526020016000206001015481526020019081526020016000206040518060800160405290816000820160009054906101000a900473ffffffffffffffffffffffffffffffffffffffff1673ffffffffffffffffffffffffffffffffffffffff1673ffffffffffffffffffffffffffffffffffffffff168152602001600182015481526020016002820154815260200160038201805461274f906137d2565b80601f016020809104026020016040519081016040528092919081815260200182805461277b906137d2565b80156127c85780601f1061279d576101008083540402835291602001916127c8565b820191906000526020600020905b8154815290600101906020018083116127ab57829003601f168201915b5050505050815250508152509050919050565b60006005600084815260200190815260200160002090506000816005015414612830576040517f302e9c3100000000000000000000000000000000000000000000000000000000815260040160405180910390fd5b600160009054906101000a900473ffffffffffffffffffffffffffffffffffffffff1673ffffffffffffffffffffffffffffffffffffffff166323b872dd3330856040518463ffffffff1660e01b815260040161288f93929190613e0c565b6020604051808303816000875af11580156128ae573d6000803e3d6000fd5b505050506040513d601f19601f820116820180604052508101906128d29190613a09565b50818160020160008282546128e79190613866565b92505081905550827fa3af609bf46297028ce551832669030f9effef2b02606d02cbbcc40fe6b47c558360405161291e9190612f19565b60405180910390a2505050565b600260005403612967576040517f3ee5aeb500000000000000000000000000000000000000000000000000000000815260040160405180910390fd5b6002600081905550565b6001600081905550565b600080600360008781526020019081526020016000206040518060800160405290816000820160009054906101000a900473ffffffffffffffffffffffffffffffffffffffff1673ffffffffffffffffffffffffffffffffffffffff1673ffffffffffffffffffffffffffffffffffffffff1681526020016001820154815260200160028201548152602001600382018054612a16906137d2565b80601f0160208091040260200160405190810160405280929190818152602001828054612a42906137d2565b8015612a8f5780601f10612a6457610100808354040283529160200191612a8f565b820191906000526020600020905b815481529060010190602001808311612a7257829003601f168201915b5050505050815250509050600060045490506040518061012001604052803373ffffffffffffffffffffffffffffffffffffffff168152602001888152602001836020015188612adf91906138fa565b815260200142815260200160008152602001600081526020016000815260200186868080601f016020809104026020016040519081016040528093929190818152602001838380828437600081840152601f19601f820116905080830192505050505050508152602001604051806020016040528060008152508152506005600083815260200190815260200160002060008201518160000160006101000a81548173ffffffffffffffffffffffffffffffffffffffff021916908373ffffffffffffffffffffffffffffffffffffffff1602179055506020820151816001015560408201518160020155606082015181600301556080820151816004015560a0820151816005015560c0820151816006015560e0820151816007019081612c079190613d11565b50610100820151816008019081612c1e9190613d11565b50905050600160046000828254612c359190613866565b92505081905550600660003373ffffffffffffffffffffffffffffffffffffffff1673ffffffffffffffffffffffffffffffffffffffff16815260200190815260200160002081908060018154018082558091505060019003906000526020600020016000909190919091505560076000836000015173ffffffffffffffffffffffffffffffffffffffff1673ffffffffffffffffffffffffffffffffffffffff168152602001908152602001600020819080600181540180825580915050600190039060005260206000200160009091909190915055803373ffffffffffffffffffffffffffffffffffffffff16836000015173ffffffffffffffffffffffffffffffffffffffff167fae8f31d692456de35fe677f5cff304f687f6be18214faaa9be7fceb6135f7d2760405160405180910390a48092505050949350505050565b60405180610160016040528060008152602001600073ffffffffffffffffffffffffffffffffffffffff1681526020016000815260200160008152602001600081526020016000815260200160008152602001600081526020016060815260200160608152602001612de8612dee565b81525090565b6040518060800160405280600073ffffffffffffffffffffffffffffffffffffffff1681526020016000815260200160008152602001606081525090565b600080fd5b600080fd5b600073ffffffffffffffffffffffffffffffffffffffff82169050919050565b6000612e6182612e36565b9050919050565b612e7181612e56565b8114612e7c57600080fd5b50565b600081359050612e8e81612e68565b92915050565b6000819050919050565b612ea781612e94565b8114612eb257600080fd5b50565b600081359050612ec481612e9e565b92915050565b60008060408385031215612ee157612ee0612e2c565b5b6000612eef85828601612e7f565b9250506020612f0085828601612eb5565b9150509250929050565b612f1381612e94565b82525050565b6000602082019050612f2e6000830184612f0a565b92915050565b6000819050919050565b6000612f59612f54612f4f84612e36565b612f34565b612e36565b9050919050565b6000612f6b82612f3e565b9050919050565b6000612f7d82612f60565b9050919050565b612f8d81612f72565b82525050565b6000602082019050612fa86000830184612f84565b92915050565b600060208284031215612fc457612fc3612e2c565b5b6000612fd284828501612e7f565b91505092915050565b600081519050919050565b600082825260208201905092915050565b6000819050602082019050919050565b61301081612e94565b82525050565b60006130228383613007565b60208301905092915050565b6000602082019050919050565b600061304682612fdb565b6130508185612fe6565b935061305b83612ff7565b8060005b8381101561308c5781516130738882613016565b975061307e8361302e565b92505060018101905061305f565b5085935050505092915050565b600060208201905081810360008301526130b3818461303b565b905092915050565b600080604083850312156130d2576130d1612e2c565b5b60006130e085828601612eb5565b92505060206130f185828601612eb5565b9150509250929050565b600081519050919050565b600082825260208201905092915050565b6000819050602082019050919050565b61313081612e56565b82525050565b600081519050919050565b600082825260208201905092915050565b60005b83811015613170578082015181840152602081019050613155565b60008484015250505050565b6000601f19601f8301169050919050565b600061319882613136565b6131a28185613141565b93506131b2818560208601613152565b6131bb8161317c565b840191505092915050565b60006080830160008301516131de6000860182613127565b5060208301516131f16020860182613007565b5060408301516132046040860182613007565b506060830151848203606086015261321c828261318d565b9150508091505092915050565b6000610160830160008301516132426000860182613007565b5060208301516132556020860182613127565b5060408301516132686040860182613007565b50606083015161327b6060860182613007565b50608083015161328e6080860182613007565b5060a08301516132a160a0860182613007565b5060c08301516132b460c0860182613007565b5060e08301516132c760e0860182613007565b506101008301518482036101008601526132e1828261318d565b9150506101208301518482036101208601526132fd828261318d565b91505061014083015184820361014086015261331982826131c6565b9150508091505092915050565b60006133328383613229565b905092915050565b6000602082019050919050565b6000613352826130fb565b61335c8185613106565b93508360208202850161336e85613117565b8060005b858110156133aa578484038952815161338b8582613326565b94506133968361333a565b925060208a01995050600181019050613372565b50829750879550505050505092915050565b600060208201905081810360008301526133d68184613347565b905092915050565b600080fd5b600080fd5b600080fd5b60008083601f840112613403576134026133de565b5b8235905067ffffffffffffffff8111156134205761341f6133e3565b5b60208301915083600182028301111561343c5761343b6133e8565b5b9250929050565b60008060006040848603121561345c5761345b612e2c565b5b600061346a86828701612eb5565b935050602084013567ffffffffffffffff81111561348b5761348a612e31565b5b613497868287016133ed565b92509250509250925092565b600080600080606085870312156134bd576134bc612e2c565b5b60006134cb87828801612eb5565b94505060206134dc87828801612eb5565b935050604085013567ffffffffffffffff8111156134fd576134fc612e31565b5b613509878288016133ed565b925092505092959194509250565b60006020828403121561352d5761352c612e2c565b5b600061353b84828501612eb5565b91505092915050565b61354d81612e56565b82525050565b600082825260208201905092915050565b600061356f82613136565b6135798185613553565b9350613589818560208601613152565b6135928161317c565b840191505092915050565b60006080820190506135b26000830187613544565b6135bf6020830186612f0a565b6135cc6040830185612f0a565b81810360608301526135de8184613564565b905095945050505050565b6000610120820190506135ff600083018c613544565b61360c602083018b612f0a565b613619604083018a612f0a565b6136266060830189612f0a565b6136336080830188612f0a565b61364060a0830187612f0a565b61364d60c0830186612f0a565b81810360e083015261365f8185613564565b90508181036101008301526136748184613564565b90509a9950505050505050505050565b60006101608301600083015161369d6000860182613007565b5060208301516136b06020860182613127565b5060408301516136c36040860182613007565b5060608301516136d66060860182613007565b5060808301516136e96080860182613007565b5060a08301516136fc60a0860182613007565b5060c083015161370f60c0860182613007565b5060e083015161372260e0860182613007565b5061010083015184820361010086015261373c828261318d565b915050610120830151848203610120860152613758828261318d565b91505061014083015184820361014086015261377482826131c6565b9150508091505092915050565b6000602082019050818103600083015261379b8184613684565b905092915050565b7f4e487b7100000000000000000000000000000000000000000000000000000000600052602260045260246000fd5b600060028204905060018216806137ea57607f821691505b6020821081036137fd576137fc6137a3565b5b50919050565b7f4e487b7100000000000000000000000000000000000000000000000000000000600052601160045260246000fd5b600061383d82612e94565b915061384883612e94565b92508282039050818111156138605761385f613803565b5b92915050565b600061387182612e94565b915061387c83612e94565b925082820190508082111561389457613893613803565b5b92915050565b7f4e487b7100000000000000000000000000000000000000000000000000000000600052601260045260246000fd5b60006138d482612e94565b91506138df83612e94565b9250826138ef576138ee61389a565b5b828204905092915050565b600061390582612e94565b915061391083612e94565b925082820261391e81612e94565b9150828204841483151761393557613934613803565b5b5092915050565b7f4f6e6c792076656e646f72000000000000000000000000000000000000000000600082015250565b6000613972600b83613553565b915061397d8261393c565b602082019050919050565b600060208201905081810360008301526139a181613965565b9050919050565b60006040820190506139bd6000830185613544565b6139ca6020830184612f0a565b9392505050565b60008115159050919050565b6139e6816139d1565b81146139f157600080fd5b50565b600081519050613a03816139dd565b92915050565b600060208284031215613a1f57613a1e612e2c565b5b6000613a2d848285016139f4565b91505092915050565b7f4e487b7100000000000000000000000000000000000000000000000000000000600052604160045260246000fd5b7f4e487b7100000000000000000000000000000000000000000000000000000000600052603260045260246000fd5b600082905092915050565b60008190508160005260206000209050919050565b60006020601f8301049050919050565b600082821b905092915050565b600060088302613b017fffffffffffffffffffffffffffffffffffffffffffffffffffffffffffffffff82613ac4565b613b0b8683613ac4565b95508019841693508086168417925050509392505050565b6000613b3e613b39613b3484612e94565b612f34565b612e94565b9050919050565b6000819050919050565b613b5883613b23565b613b6c613b6482613b45565b848454613ad1565b825550505050565b600090565b613b81613b74565b613b8c818484613b4f565b505050565b5b81811015613bb057613ba5600082613b79565b600181019050613b92565b5050565b601f821115613bf557613bc681613a9f565b613bcf84613ab4565b81016020851015613bde578190505b613bf2613bea85613ab4565b830182613b91565b50505b505050565b600082821c905092915050565b6000613c1860001984600802613bfa565b1980831691505092915050565b6000613c318383613c07565b9150826002028217905092915050565b613c4b8383613a94565b67ffffffffffffffff811115613c6457613c63613a36565b5b613c6e82546137d2565b613c79828285613bb4565b6000601f831160018114613ca85760008415613c96578287013590505b613ca08582613c25565b865550613d08565b601f198416613cb686613a9f565b60005b82811015613cde57848901358255600182019150602085019450602081019050613cb9565b86831015613cfb5784890135613cf7601f891682613c07565b8355505b6001600288020188555050505b50505050505050565b613d1a82613136565b67ffffffffffffffff811115613d3357613d32613a36565b5b613d3d82546137d2565b613d48828285613bb4565b600060209050601f831160018114613d7b5760008415613d69578287015190505b613d738582613c25565b865550613ddb565b601f198416613d8986613a9f565b60005b82811015613db157848901518255600182019150602085019450602081019050613d8c565b86831015613dce5784890151613dca601f891682613c07565b8355505b6001600288020188555050505b505050505050565b6000604082019050613df86000830185612f0a565b613e056020830184612f0a565b9392505050565b6000606082019050613e216000830186613544565b613e2e6020830185613544565b613e3b6040830184612f0a565b949350505050565b7f4f6e6c792076656e646f72206f7220636c69656e740000000000000000000000600082015250565b6000613e79601583613553565b9150613e8482613e43565b602082019050919050565b60006020820190508181036000830152613ea881613e6c565b905091905056fea2646970667358221220e6e04742431297ec2decf398995e876995871bc45511e61d6c6a8d5321de502a64736f6c634300081c0033",
  "linkReferences": {},
  "deployedLinkReferences": {}
}